:020000040800F2
:100000000050002001370108A1370108B11B010889
:10001000A1370108A1370108A1370108000000003D
:10002000000000000000000000000000A1370108EF
:10003000A137010800000000A13701088FD4000893
:10004000A1370108A1370108A1370108A13701082C
:10005000A1370108A1370108917100088F710008CC
:10006000A1370108A1370108A1370108A13701080C
:10007000A1370108A13701080D010108A1370108C6
:1000800093710008A1370108A1370108A1370108C1
:10009000A1370108A1370108A13701088D710008B7
:1000A000A1370108D9FE0008A1370108E9FE0008C0
:1000B000CDFE0008BDFE0008ADFE00082556000874
:1000C000295600081D56000821560008A1370108CE
:1000D000A137010801010108F5000108E900010844
:1000E0009DD40008A1370108A137010800000000D5
:1000F0000000000000000000000000000000000000
:0C01000000000000000000005FF808F1A3
:100110002DE9F04FAE4C9DB023780D2B9FBFAD4A1B
:10012000342101FB03239F6A88BF0027AA4E15A82C
:10013000F36898479DF85430A84D23B123780D2BD0
:100140000CD900240FE00DF071F9A54B1B68FB1AC8
:1001500018442B6864339842E8D3EFE79D4A342172
:1001600001FB03239C6A9F4BA4B21C80286812F0F9
:100170008BF89D4912F0E0F807469C4B9C4D1860A7
:10018000204612F081F8294601223B4608F0F4FE91
:1001900012F0BEFA7368A88196489847954E48B900
:1001A000954CDFF87082236813F0020F40F0DB807B
:1001B00000F068BD2F694FB3A6F1020E00218F48F1
:1001C00001F1180300EB010C624607F1FF3803440C
:1001D000002432F8020F22F8020C18F9019F00B235
:1001E0009A4209FB0044F4D13EF8023F1A31ACF8C0
:1001F00018301AB297F90C304E2903FB02434FF422
:10020000807293FBF2F3AEF80030D8D17C4B794882
:100210007C4F1A7801460CF08FFB3B88002B78D07E
:100220006B6EDFF8F4811B7808F10C0404934FF037
:1002300000093B8836F91900B3F57A7F059302BFB0
:100240000023C8F800302361D8F800304FEA490A8B
:100250000344C8F8003012F01BF823690133012B66
:10026000236104D1002360602060A3602AE0D4F8F9
:1002700000C008936146CDF818C0079011F052FFF6
:10028000089B8346184612F003F80146584612F0C0
:1002900007F9DDF818C00146604611F045FF034636
:1002A000079A194660601046069311F03BFF01461D
:1002B000584612F041F8A16811F036FF069BE06045
:1002C0002360A060DFF840B1002326F80A302AF846
:1002D0000B30059B012B28D12069012807DD01384F
:1002E00011F0D6FF0146E06812F0DAF800E00020D5
:1002F00015F0D4FF049A72B10590104611F0C8FFB2
:10030000059B0146184612F0D3F920B14FF47A73D9
:100310003B8000231BE0D8F800304FF47A7203F5DD
:10032000FA7393FBF2F32BF80A3009F10109B9F1E2
:10033000030F08F1040804F114047FF47AAF38883D
:10034000012801D108F0C8FC3B88013BE0E72E49B9
:1003500036F8132031F81310521A26F813200133FF
:10036000032BF4D11CE7294B1B78002B00F08A8467
:100370000DF05CF8D5F8B8300027C31A0693C5F81D
:10038000B800D5F8BC30DFF894B093F800A005931E
:10039000BAF1000F44D038F9170011F079FF1C4B67
:1003A00004904FF00C09069809FB073911F06CFF17
:1003B0000D4911F0C1FF049A0346494610465246C2
:1003C00008F0DAFD12F07EF92BF817002CE000BFE0
:1003D0005003002060000020541200201013002061
:1003E000542B0020B4110020BD378635441D002059
:1003F000A0080020E411002008130020B408002009
:100400007D120020BC360020500900209C360020C0
:10041000600900206C36002008090020DE11002051
:1004200038F817302BF817300137032FA9D1BBF854
:1004300002A0BBF800800FFA8AF35B430FFA88F939
:10044000BBF8042009FB09330992BDF9249064220A
:1004500009FB093902FB09F37F4AB2F8009009FB56
:1004600009F993FBF9F9A9F152030A93236813F0F0
:1004700008030ED0794AB2F900303BB1B2F902302C
:1004800023B1B2F90430003318BF012303F0010790
:1004900000E01F46069811F0F7FE714911F04CFF7D
:1004A000D5F8E4400490B6F9000011F0F1FE2146C1
:1004B00011F042FF8346B6F9020011F0E9FE214631
:1004C00011F03AFF0790B6F9040011F0E1FE214661
:1004D00011F032FF614B0890594658461E885D88DE
:1004E0009C8811F029FF81460798014611F024FFEE
:1004F0000146484611F018FE81460898014611F061
:100500001BFF0146484611F00FFE15F0C7FE0B9089
:10051000002F00F0AB8030B211F0BAFE064628B2D0
:1005200011F0B6FE054620B211F0B2FE3146044687
:10053000304611F001FF29460746284611F0FCFE1F
:100540000146384611F0F0FD21460746204611F0DD
:10055000F3FE0146384611F0E7FD4249074612F026
:10056000A7F8002800F08280384615F097FE014673
:100570004FF07E5011F094FF81463046494611F00D
:10058000DBFE49460746284611F0D6FE4946064698
:10059000204611F0D1FE344C05462168384611F052
:1005A000CBFE61680C90304611F0C6FE0C9B0146F4
:1005B000184611F0B9FDA1680C90284611F0BCFE58
:1005C0000C9B0146184611F0AFFDE1680C903846CF
:1005D00011F0B2FE21690746304611F0ADFE01462A
:1005E000384611F0A1FD61690646284611F0A4FEC7
:1005F0000146304611F098FD0C9B054619461846F9
:1006000011F09AFE29460646284611F095FE01464D
:10061000304611F089FD15F041FE0146284611F0E3
:100620008BFE00F10047A169384611F085FE0021DC
:1006300011F07AFDE1690646384611F07DFE002191
:1006400011F072FD216A0546384611F075FE002151
:1006500011F06AFD04460CE010000020EA110020B1
:10066000BD3786350AD7233C442100200024254687
:1006700026460A9B262B00F286800FFA88F011F09E
:1006800007FE81460FFA8AF011F002FE0746BDF917
:10069000240011F0FDFD49468046484611F04CFE0D
:1006A00039468246384611F047FE0146504611F061
:1006B0003BFD41468246404611F03EFE0146504613
:1006C00011F032FD5849824611F0F2FF00285AD04D
:1006D000504615F0E3FD01464FF07E5011F0E0FE6C
:1006E00082464846514611F027FE5146814638461B
:1006F00011F022FE51460746404611F01DFE4B4BBD
:1007000082461A6A38461146D3F81C800A920C9326
:1007100011F012FE41460990504611F00DFEDDF831
:1007200024C00146604611F0FDFC0146304611F040
:10073000FBFC0C9B06469B6950461946099311F039
:10074000FBFD0A9A82461146484611F0F5FD014626
:10075000504611F0E7FC0146284611F0E5FC414601
:100760000546484611F0E8FD099B80461946384683
:1007700011F0E2FD0146404611F0D4FC014620464E
:1007800011F0D2FC0446059B4FF00009D3F8048019
:100790004946404611F08CFF254F78B30B98254908
:1007A00011F068FF80B33146404611F0C5FD049951
:1007B00011F0C2FD0146D7F8E80011F0B5FC29465A
:1007C000C7F8E800404611F0B7FD049911F0B4FDF8
:1007D0000146D7F8EC0011F0A7FC2146C7F8EC0061
:1007E000404611F0A9FD049911F0A6FD0146D7F885
:1007F000F00011F099FCC7F8F00005E0C7F8E890A8
:10080000C7F8EC90C7F8F090059B98680A4B1B78E6
:100810005B0705D4094B1A6844F61F639A420FD947
:100820004FF07E510DE000BF0AD7233C4421002049
:10083000A0080020C2B8B23EC0360020981C00209C
:10084000A34911F079FD3146804611F075FDD7F8C6
:10085000E81011F069FC0146584611F065FC294684
:100860000646404611F068FDD7F8EC1011F05CFC2C
:100870000146079811F058FC21460546404611F004
:100880005BFDD7F8F01011F04FFC0146089811F00D
:100890004BFC4FF07C510746049811F04DFD044687
:1008A0003046214611F048FD21460646284611F003
:1008B00043FD21468046384611F03EFD854B824679
:1008C000D3F80090844B31461F68844B09F10040F7
:1008D0001D6811F031FD41460790384611F02CFD9E
:1008E000079B0146184611F01DFC5146079028460B
:1008F00011F022FD079B0146184611F013FC784CBD
:100900000146D4F800B0584611F00EFC3146206084
:100910000990584611F010FD51460790384611F0E5
:100920000BFD079B0146184611F0FEFB4146079060
:10093000284611F001FD079B0146184611F0F2FB15
:100940000146484611F0F0FB624B414618600890A2
:10095000584611F0F1FC51460790484611F0ECFC66
:10096000079B0146184611F0DDFB314607902846EB
:1009700011F0E2FC079B0146184611F0D5FB014639
:10098000384611F0D1FB544A514610600790584642
:1009900011F0D2FC41468246484611F0CDFC01469A
:1009A000504611F0C1FB31468046384611F0C4FC78
:1009B0000146404611F0B6FB0146284611F0B4FB53
:1009C000DDF824C0454B614618600546604611F0CD
:1009D000B3FC089A06461146104611F0ADFC0146DC
:1009E000304611F0A1FB079B06461946184611F048
:1009F000A3FC0146304611F097FB294606462846DF
:100A000011F09AFC0146304611F08EFB15F046FCC1
:100A100001464FF07E5011F043FD054620682946FF
:100A200011F08AFC2B4B20602946186811F084FCD9
:100A3000284B29461860284B2A4C186811F07CFC7A
:100A4000254B29461860254B274D186811F074FC7A
:100A5000224B18600DF042F8216AE06915F092FA15
:100A6000224911F069FC15F0C3F92880A06900F152
:100A7000004015F037FA01461D4811F053FB1B49A1
:100A800011F05AFC15F0B4F921686880E06815F09F
:100A900079FA164900F1004011F04EFC154B196827
:100AA00011F042FB15F0A4F983B219044ABF00F516
:100AB0006160AB80A880266A0F4D3046D5F8F410EF
:100AC00011F0F6FD0D4B1A78D0B142F0080219E092
:100AD00000002041382100203C210020402100203E
:100AE00058000020442100201C1200204C3D0F44DF
:100AF000DB0FC93F20130020A0080020B02B0020EE
:100B000022F00802B14F1A70B7F9000011F0C0FBD3
:100B10008146B7F9020011F0BBFB8046B7F904002B
:100B200011F0B6FB21680746484611F005FC6168E4
:100B30008246404611F000FC0146504611F0F4FA9E
:100B4000A1688246384611F0F7FB0146504611F085
:100B5000EBFAA1698246484611F0EEFBE169834653
:100B6000404611F0E9FB0146584611F0DDFA3946DE
:100B70008346304611F0E0FB0146584611F0D4FAA6
:100B8000E1680646484611F0D7FB21698146404698
:100B900011F0D2FB0146484611F0C6FA6169804661
:100BA000384611F0C9FB0146404611F0BDFA059BDD
:100BB00000F100475B78012B18D1854B1B785A0751
:100BC0000ED4D5F8F800402390FBF3F3C01A11F0CF
:100BD0005FFB314611F0A8FA11F074FDC5F8F8007A
:100BE000D5F8F800402390FBF3F001E0794B18882A
:100BF00011F04EFB0146304611F094FAD5F8001181
:100C00000646049811F090FA0146049811F048FC49
:100C1000D5F8FC4080462146304611F083FA014663
:100C2000404611F089FB0146204611F07DFAC5F8D7
:100C3000FC000646504615F0DBF8D5F80451664C2A
:100C4000297808F0F9FB236818442060384615F02D
:100C5000CFF8297808F0F0FB6368184460603046EC
:100C600015F0C6F8697808F0E7FBA3685B4A1844FA
:100C700006991368A06019441160594A136801333A
:100C8000136006E00023A8F80030A8F80230A8F8A6
:100C90000430544A54481668B0F9063071898B42C2
:100CA0000EDBB3F5FA6FF579BFBF5A1A6A43A1F5A7
:100CB000FA6592FBF5F5ACBFC5F16405643500E05B
:100CC0006425B1898B421ADBB3F5FA6F327A11DAF7
:100CD000632A88BF643AA3EB010385BF92B25343F2
:100CE0005343C1F5FA6298BFA1F5FA6293FBF2F2A1
:100CF000643205E0632A03D8C2F1640200E0642292
:100D000040F2DC51B0F904308B42DABFC3F5BB636B
:100D10000433A3F2DC53B3F5FC7FDBBF6FF00401B7
:100D200093FBF1F3002364330593304B3049B3F860
:100D300094C193F95E3109689BB204910F46069302
:100D4000002140F2E630284B4FEA410833F9119078
:100D5000CCEB090303F2F314844203D8002BB8BF91
:100D60005B4201E04FF4FA73022949D0049C94F8E5
:100D70001D411CB1A342CCBF1B1B0023642093FB6D
:100D8000F0FE1C4C6FF0630B34F81EA00BFB0E3B07
:100D90000EF1010E34F91E400FFA8AFECEEB040468
:100DA00004FB0BF494FBF0F41348544420F808407F
:100DB0007418247964206343104C93FBF4F3643378
:100DC0009BB26B4393FBF0F049E000BFDE110020C3
:100DD000C036002010000020742B0020A836002010
:100DE000702B002038120020B22D0020702E002021
:100DF000001200201A1900202C1D00200CFEFFFFFD
:100E0000049890F81E411CB1A342CCBF1B1B0023C9
:100E1000642093FBF0F0B24C6FF0630A0AFB003BD6
:100E200004EB400E04EB4000BEF908E1B0F90A0102
:100E3000002BCEEB000000FB0BFB9BFBFAFB0698A4
:100E4000CEEB0B0B0BFB00FBA648B8BF5B42A0F838
:100E500004B0B0794343A44893FBF0F064307C784D
:100E60004FF0640E444394FBFEF4A04B02295C5403
:100E7000FC7A03F1030A00FB04F494FBFEF40AF885
:100E800001407C7D03F1060300FB04F090FBFEF0C3
:100E9000944C58549648974B06D182709DF8140094
:100EA000E145987005DB0FE0E145455403F801E0AA
:100EB00004DA34F808305B4224F8083001310329A1
:100EC00007F101077FF43DAF8B4E8C4FB6F906104A
:100ED000B7F89631994205DBB1F5FA6FA8BF4FF428
:100EE000FA6100E01946C91A4FF47A725143C3F50A
:100EF000FA63B1FBF3F1642391FBF3F0DFF83C827A
:100F00006FF0630202FB001E38F810C0013038F9A0
:100F100010100FFA8CF28A1A02FB0EF292FBF3F316
:100F20006344E380764B6F4D1B885B0643D5754B5E
:100F30000A20B3F9043093FBF0F0734B1B88C01AFE
:100F400000B211F0A5F9714911F0F6F97049804627
:100F500011F0EAF808F07FFA8146404608F07BFA83
:100F60008046B5F9020011F093F98246B5F9000008
:100F700011F08EF94946834611F0DEF9414604909E
:100F8000504611F0D9F9049B0146184611F0CAF8F1
:100F900011F098FB49462880504611F0CDF94146A2
:100FA0008146584611F0C8F90146484611F0BCF890
:100FB00011F088FB688097F89A31494D002B52D088
:100FC000AB89B5F82011B1FBF3F1524B481C1B78EB
:100FD00080B2A5F8220133B3B5F924B10023DFF8BC
:100FE00000E134F813800EF5977C3CF813200EF5E1
:100FF0009379C2EB0802049239F913200FFA80FAB0
:101000000BFB02F292FBFAFA049A2CF8138052447A
:1010100029F813200133042BE1D13E4B00221A7032
:10102000AEF8241104E0B5F82431013BA5F82431D1
:101030002B4A0023B2F92401002812DDB2F922E183
:101040003549A1F1080232F9132031F81310424357
:1010500092FBFEF28A1A24F813200133042BEFD1FD
:1010600001E0A2F824312D4ADFF8D4801378DFF8AC
:10107000D49013F0040F03D0294B08225A6171E079
:10108000D9F80010C8075CBF43F001031370254B6B
:101090001B78190758BF137823495CBF23F001035D
:1010A0001370D8F8003013F0040F02D01F480088E6
:1010B00070B91F48008808B19B0709D41D4B1B88D5
:1010C000003318BF01231BB91B48008864283BD993
:1010D00002230B70137823F00103137039E000BF73
:1010E000A00800202C1D00200CFEFFFFB6090020E8
:1010F000341D0020C8360020B22D0020702E0020A4
:10110000B81100201C120020B610002035FA8E3CC9
:10111000DB0FC93FB8100020CE090020C0360020E8
:10112000000C0140B02B0020C01C0020BE36002067
:1011300064100020BC3600204C2A00200219002038
:1011400008130020BC1100201278D00758BF0223DA
:101150000B700CF06BF98F4B1B68C01A002801DB79
:101160000BF066FD8C4B9B680BB18C489847D8F808
:1011700000008B4B012210F0080F1A708949DFF82C
:1011800060A244D0B4F804E0DFF858C20EF10E03B8
:101190009BB21C2B844BB3F9043033D8834A12889A
:1011A00052072FD50A2293FBF2F2BCF80030D21A74
:1011B00092B293B20FFA83FC1CF1B30FBCBF02F5DD
:1011C000B47293B21AB2B32A794AC8BFA3F5B47302
:1011D0001278C8BF9BB2120791F85EC117D54FFABB
:1011E0008CFCCCF1000C03FB0CF3DAF800201BB2F2
:1011F000527A53436FF01D0293FBF2F39E44A4F81E
:1012000004E004E00A2293FBF2F3ACF8003010F0A3
:10121000140FDFF8D48172D0644B1B8803F402737F
:10122000002B6CD0624B1B7803F0100303F0FF0E11
:1012300043B1604B91F9F2011A68638800FB0233F5
:1012400063805CE0D8F838215B4B92F803C0B3F9B7
:1012500000009278BCF1000F23D0B6F906C0C0EBB5
:101260000C03002BB8BF5B42934210DD534B844507
:10127000C3F800E04FF0010388F83C31B4F806E011
:10128000C6BF53429BB293B27344E38037E098F8F1
:101290003C3133B34A4B88F83CE11A68494B1A6039
:1012A0001FE0B6F906301B1A83EAE37EAEEBE37E5D
:1012B00096450ADD022293FBF2F3434A1360434A48
:1012C0000123137088F83C310BE098F83C3143B1AE
:1012D0003B4B88F83CC11A683A4B1A603B4B83F889
:1012E00000C0344B1B680344D8F840010288408892
:1012F000934203DB8342A8BF03461A46E280344B85
:101300001B78A3B1B6F90620B1F896319A420EDCEB
:10131000244B5B79012B01D0192B02D191F8E621E6
:101320002AB90E2B03D0082B1CBF0023A380DAF8A8
:10133000003093F82461002E5CD01C4B1B889B0767
:1013400058D0244B2449D3F820B0584611F09CF9CA
:1013500000284BD1584614F0C5FDD5F8441110F0C3
:10136000EBFF14F045FDB0F5617FA8BF4FF461704D
:1013700010F08EFF194911F093F808F06CF805464B
:10138000304610F085FF294610F0D6FF14F030FDEE
:1013900080B22CE0C41C002054120020D60900208A
:1013A000B9100020702E00201C120020B81100205F
:1013B000B02B00209C2B0020BA100020982B00207E
:1013C00024120020902B0020AC360020A02B0020FF
:1013D00006000020442100208FC2753CEFB6B044C7
:1013E00000120020B4100020A00800200020E38894
:1013F0001844E080994B1B784BB1994B00221A603E
:101400005A609A60974B00221A605A609A60964B15
:10141000DAF80000B7F86A210093944B1D68944BEA
:10142000196800F16403A847924B934993F800A010
:10143000BAF1030F15D9D8F848315D88B5F5FA7FB0
:101440000FD2B4F90400B1F904600028B8BF4042DB
:101450006A42131A9E4203DB2B18B342A8BF3346DD
:101460008B80D9F80030D8000DD5D8F84831834F9B
:10147000002604934A88B1F80090B1F904B03546CB
:101480003346B8464EE17E4B1A6812F48052ECD1D6
:101490007C4BB4F806B01A704B887B4D05930B88D3
:1014A0000693D8F848310793B1F90430089398F8B7
:1014B0000C320993754B1B680A93D8F810320B93C2
:1014C000D8F8143290460C93714B1C88714BB3F9C9
:1014D000007023B2D919FB1A10936F4B0F91B3F917
:1014E0000030A4B211936D4BB3F90030C3F56171B4
:1014F00003F561730D936A4B0491B3F84031C3EB6C
:101500000B039BB20E93D04580F06E810FFA8BF0E7
:1015100010F0BEFE55F8081C10F00EFF0646BDF98F
:10152000140010F0B5FE296810F006FF01463046A1
:1015300010F0FAFD0646BDF9180010F0A9FE55F8A6
:10154000041C10F0F9FE0146304610F0EDFD079B3B
:10155000064693F90000089B4042584310F098FE5D
:10156000696810F0E9FE0146304610F0DDFD11F02B
:10157000A9F84FEA480312934A4B86B223F8186041
:10158000099B012B65D1B8F1000F5DD146490A983E
:1015900010F0D2FE11F096F80C9B1FFA80F9198812
:1015A0000B980CF0EDF80FFA89F103B2994203DDC4
:1015B0000F9B99420EDB03E00CDA109B994209DC89
:1015C000C91B0029119BB8BF49429942A8BF1946BF
:1015D00089B200E02146C9EB000080B20FFA80FE1C
:1015E0008EEAEE73A3EBEE738B42C2BF0EFB01F0EB
:1015F00090FBF3F080B20FFA89F300B2049A03442F
:10160000934204DB0D9A9342A8BF134600E0049B6B
:101610000E98139310F03CFE139B814618B210F005
:1016200037FE214910F03CFF204910F085FE0CF0F8
:10163000C9F80146484610F07FFE494610F072FD99
:1016400011F066F880B200E00020164B129A0644B2
:10165000D65208F10108103555E700BF08000020F8
:10166000541D00201C1E0020F62F00200C0000201E
:101670003812002014200020901D0020EC090020CA
:1016800068130020C6360020F40900200000002066
:101690004A1E0020461E00204C1E0020441E002032
:1016A000702E0020041200200000204135FA8E3CEC
:1016B00010B20692079310F0EBFDB96810F03CFEF3
:1016C00005900FFA89F010F0E3FD796810F034FE10
:1016D000DDF814C00146604610F026FD049B05901D
:1016E00093F9000040420BFB00F010F0D1FDF968C7
:1016F00010F022FEDDF814C00146604610F014FD23
:1017000010F0E0FF079B80B215A921F813000FFA33
:1017100085FE01B27145069A07DD0546304606464C
:10172000013310375345C3D305E00FFA86FE7145E8
:10173000F5DB2846F1E77B4BAD1B1B682EB25988C1
:101740001F88794AC81B00B286424FF0000310DDA3
:1017500001251570534509D215AD35F913204243C3
:1017600092FBF6F225F813200133F3E7BFB28DB2F6
:1017700007E0022596FBF5F52F444D1B1370BFB211
:10178000ADB2B4F80690002454452DD215AB33F910
:10179000140010F07DFD04900FFA89F010F078FD30
:1017A000230158F8031010F0C7FD064638B210F0B8
:1017B0006FFD83463046594610F05CFF48B928B2A9
:1017C00010F066FD83463046594610F071FF00B9AF
:1017D000B3465946049810F0A7FC10F073FF534B22
:1017E00023F814000134CFE75149524F0A7804918D
:1017F00002F0040202F0FF030AB93A7871E04E4B9E
:101800004E4D93F803A04E4B186810F080501BD13A
:101810002B68D90416D4454A3E7813880124B44273
:1018200019B207D232F9143001349942B8BF1946BF
:101830008BB2F4E73B4A12685288914204DD9A1A4F
:1018400092B202E0024600E000223E4B2E68B3F95D
:1018500006403D4B97F800C0D3F818E23B4B06F426
:1018600080591D682F4B06F0100619682F4B03EBAB
:101870004C0C63452CD038B9B9F1000F40F0ED8520
:101880001F88BF1A1F8003E0B9F1000F40F0EF85F9
:10189000B1F80280B3F900B0BAF1000F07D08F8819
:1018A000BB4512DBC3455F46A8BF47460DE00F8826
:1018B000BB4503DBC3455F46A8BF47461F80BEF854
:1018C0001070BC4202DA0EB18F881F800233D0E75D
:1018D0001D4991F80C32013BDBB2182B00F2148346
:1018E00009E09342F4D21A4931F813000F4921F864
:1018F00013000133F5E701229A40164B1340002BE9
:1019000000F00283144B0F481B8813F4807F27D00C
:10191000124B1A88ADF854205A889B88ADF856208F
:1019200034E000BFBC200020C63600200412002096
:10193000C0360020142000209C1C002068130020CA
:10194000BC110020B22D0020A0080020B8200020EB
:10195000262A002099209801B81100202C1D002073
:10196000C54B1A88ADF854205A889B88ADF856208C
:10197000C24AADF858301268D20409D5D1F81822FD
:10198000B0F90640D289944202DA5B42ADF8583091
:10199000BB4D4FF47A72B5F902304FF4616403F530
:1019A000E163534393FBF4F3A3F5FA73ADF86C30A2
:1019B000B5F9003003F5E1635A4392FBF4F2B14B01
:1019C000A2F5FA721B88ADF86E20A3F2DC53ADF8D5
:1019D0005A30D1F818320288DB89D21AADF85C206F
:1019E0004288D21AADF85E208288D21AADF8602003
:1019F000C288D21AADF862200289D21AADF86420EA
:101A00004289D21AADF866208289D21AADF86820D0
:101A1000C289D31AADF86A3000239B4A002122F80C
:101A200013100133082BF8D1984B99491B68994D35
:101A30000593994BD3F800B0984B1B78C3EBC303C5
:101A400001EB0308414572D00B7833B103F1150265
:101A500001239340059A134065D011F806EC0E2738
:101A600007FB0EB7B7F90020B7F9023064209B1AC4
:101A700011F9022C9BB25A4392FBF0F211F805AC1B
:101A80004FEA530911F8034CC9EB02024FEA4A0628
:101A90001CA892B211F801CC064414B936F81C0CFB
:101AA0000CE0B5F9000036F91C6CB04208DA0444C9
:101AB000844203DBA6423046A8BF2046288008E0C7
:101AC00007DD041BB44203DB8442A8BF044626465C
:101AD0002E80D7F80A40012000FA0AF02042B5F91A
:101AE000006011F9040C12B200FB06F04FF064061E
:101AF00090FBF6F014BF4FF0FF34012490420ADB54
:101B00004FFA8CF25A4392FBF6F2C9EB020212B280
:101B10008242A8BF02465C4B33F81E9002FB04943D
:101B200023F81E4000E02B80023507318AE75A4B2C
:101B30005B4E1F6800250E2303FB057393F90640D7
:101B400036F9023FE8B26343642493FBF4F4348033
:101B50000BF0AAFF01352044082D3080EBD1514C09
:101B600094F80C32012B40F0CF81049B1B785F0767
:101B700040F19481D4F810C2D4F814E2BCF9047096
:101B8000BEF80010484B3EB2B1421A68B4BFBCF96F
:101B90000000BCF90200A1EB060102FB01F1B4BF99
:101BA000381AC01B80B200B291FBF0F13F4B3D46AA
:101BB0001868984681422ADBD3F88C01814238DAD2
:101BC0004FF0630900235A1C91450BDD03EB09021A
:101BD000022092FBF0F258F822008842D4BF13464C
:101BE0009146F0E758F8232003EB83035B0003F5ED
:101BF000C8708B1A0A21594358F829309A1A91FB58
:101C0000F2F283189BB2B3F5617F10D201E04FF47A
:101C1000C8732749BCF90020B1F90010B51A5B1A46
:101C20006B43C1F5617593FBF5F515440FE00ED0DC
:101C300001E04FF4AF63BCF90250A3F56173AE1B32
:101C400073431B4AB2F9005093FBF5F3DD190F4BB8
:101C5000ADB21B68AEF8005013F000652CD1154BE7
:101C60001B88DE0440F11A814FF4805007F064FCB9
:101C700084F8445212E100BF901D00206813002038
:101C80001C12002004120020F0110020BC110020C2
:101C9000C7200020BC0A00208C190020C020002092
:101CA000EE110020A0080020E01F0020501E0020A0
:101CB000441E0020B8110020B34B03F5C370B3F8E5
:101CC0004E1106F0B2FF94F84432451E6842684156
:101CD000042B00F2E380DFE813F005001D008E0006
:101CE000BE00D200002800F0D9804FF4805007F0E9
:101CF00033FC0E2006F0F0FF012384F84432A34B9E
:101D00001A681B68C4F83C22C4F840320823A4F8BF
:101D10004632C3E09D4E002869D000200BF098FFAA
:101D2000002864D001200BF093FF00285FD0022030
:101D30000BF08EFF00285AD03268D4F83C12944B36
:101D4000521AB2F5FA7FC0F0A9803268D3F8401277
:101D5000521AB2F5FA7FC0F0A1808E4A9768B3F8A4
:101D6000462287EAE770A0EBE770904206DA02228B
:101D700083F844223268C3F83C2234E00A280CDDA0
:101D800010F086FA844910F08BFB844910F0D4FAE5
:101D9000834910F0C9F9054600E0814D002F814FBD
:101DA000C6BF05F100450120022006F0CBFF284602
:101DB000396810F0B9F94FF07E51054610F05AFC21
:101DC00020B92846784910F073FC48B10D2006F080
:101DD00083FF042384F844323368C4F83C3202E0C1
:101DE0003D600BF00DFD3368C4F8403256E03368B7
:101DF000C4F83C3252E0654DD0B1664BB4F846228F
:101E00009B68634E002BB8BF5B42934210DA2B688D
:101E1000D6F83C229B1AB3F57A7F3FD30E2006F00A
:101E20005BFF032386F844322B68C6F83C3235E06A
:101E3000012384F844322B68D4F84012C4F83C32B1
:101E40002B68534A5B1AC72B28D9B2F846320133A4
:101E5000A2F8463222E0534B4F49186810F06CFA52
:101E600010F030FCD4F84852D4F83C22A881474DF9
:101E70002B689B1AB3F5FA6F10D30E2008E0434D80
:101E8000D4F83C222B689B1AB3F5FA6F06D30D20C9
:101E900006F022FF2A683E4BC3F83C22434BD4F89D
:101EA00010021D68D4F81432414C19880BF068FCFC
:101EB00010F0EEF9384910F0F3FA3E4B0746B3F94B
:101EC000000010F0E5F90146284610F035FA2568C3
:101ED00006463946284610F025F9314620F00040E4
:101EE00010F0C8FB08B127600EE02846394610F014
:101EF000C1FB20B12846314610F016F903E0284610
:101F0000314610F00FF920602B4F2C4D3B682C4EC2
:101F100013F0200F33D000200BF0C6FD28800446BC
:101F200001200BF0C1FD274B68801B68190626D5E0
:101F3000174B254AD3F84C321B78012B46D1316818
:101F4000B2F9003091F914E04FF0320C03FB0EF3BC
:101F500093FBFCF31FFA83FE91F90630B2F90220DD
:101F60005B4253436FF0310193FBF1F193FBFCF3C0
:101F70000EEB0102A1187344298018446880D6F83A
:101F800000E000233CE000BF702E0020981C0020E1
:101F9000A0080020A41D0020000020419A99193EAD
:101FA000CDCCCC3DA436002000002042441D0020B2
:101FB00000000020481E002068130020F0110020BF
:101FC0008C190020BC1100201C120020D6F800E063
:101FD000B2F902309EF906105943322391FBF3F116
:101FE000214429809EF91440B2F9001001FB04F24B
:101FF00092FBF3F21044C1E70133082B2A5310D0AF
:102000000E2101FB03E135F91300B1F900205C005A
:102010009042B1F90210EFDB0AB28242A8BF024639
:10202000EAE7A44CD4F8489199F90830A3B994F898
:102030000C8208F1FF33182B72D8DFE803F03571FA
:10204000714F7171714871717171715971717171E3
:10205000714F657171593500DFF878A24FF00008B3
:10206000954B882000FB08303AF9021FB9F9062089
:102070000BF051FA32680E2303FB082280B2AAF853
:102080000000B2F9003000B29842B2F9022003DB3E
:1020900013B28342A8BF034608F10108B8F1080F44
:1020A000AAF80030DCD1C2E799F8043013B100205F
:1020B000698908E0049B1B7803F0040303F0FF0028
:1020C000002BF4D1014605F055F8012629E0002047
:1020D000E98805F04FF80120298905E000202989C9
:1020E00005F048F86989012005F044F8022618E057
:1020F0000226B01E35F81610C0B2013605F03AF8C7
:10210000082EF6D106260CE00326F01E35F8161030
:10211000C0B2013605F02EF8072EF6D1042600E0F5
:1021200000263B689A0602D4B8F1050F0AD1304662
:10213000298805F01FF8701CC0B2698805F01AF8EC
:102140000236F6B23B68DB0205D494F890367BB1D8
:102150000BF0EEFB0CE0DFF8808100257019C0B2B7
:1021600038F8021F05F006F80D2DEED00135F5E721
:10217000524B1878002840F095813B681D0340F1D0
:10218000918194F89136023B052B20D84C4B93F863
:10219000E63733B1012B0AD10DF050FEC0F17F00BC
:1021A00005E0444BD3F8940603689B689847D4F83D
:1021B000983694F89C261344B3F5807FA8BF4FF45B
:1021C00080738342D4BFC4F89836C4F8980694F854
:1021D0009136023B082B00F22F81DFE813F0090053
:1021E00040002D012D0159007F00F1000F011C015D
:1021F000344B1A68D4F8A43664339A4240F21C81F6
:1022000040200DF0E3FA002840F0168140272E4BC5
:10221000D4F8A026274E985C1D4678B109F024FA20
:10222000D6F89836013F03F1FF33C6F89836D6F852
:10223000A03603F10103C6F8A036E8D1D4F8A026F1
:102240001C4BAA5C002A40F0F780C3F8A0264FF090
:10225000FF32C3F8A426032283F89126ECE02A2358
:1022600000931A4B492003F10C0201930292502172
:10227000A3F10A02023309F05BFD002840F0DC8084
:102280004FF0FF33C4F8A436C4F8A0060623CCE010
:102290000F4A05230021009301910291532002F17E
:1022A000080309F045FD002840F0C680C4F8A006E8
:1022B0000723BAE0A0080020F00A0020C53600205D
:1022C000702E0020981C0020187E0108827E0108D4
:1022D00070800108EE110020B82D002040200DF084
:1022E00075FA002840F0A880D4F8A0360C2B00F234
:1022F000AA80DFE803F0070B0E1219252A2F3337C7
:102300004550540069480DF0EFFB53E068486949B7
:1023100013E0694869496A4A4AE06A4B6A4893F897
:10232000E41793F8E52743E0664B0E2193F8B827AE
:10233000664801FB023393F8BA170DF0D5FB39E07C
:10234000604B6348B3F84011F7E75E4B6148B3F860
:102350004211F2E7604B61481969EEE7604B614852
:102360001988EAE7D4F8A836D80404D5554B5E4856
:1023700093F87811E1E75D4B0B22C3F8A02619E032
:10238000504B5B4893F87C1193F87D2193F87B3197
:102390000DF0AAFB0EE05748B4F8AC16CDE73B6849
:1023A000190507D5474B5448B3F88011B3F97E217E
:1023B0000DF09AFBD4F8A0360133C4F8A0363BE008
:1023C0004E4B1B689A0116D5B4F8B036474D93B9F9
:1023D000D5F8B4360E201593494B15A91B681693F2
:1023E00009F0E6F94FF48053A5F8AE36092385F8D5
:1023F000913609F035FA09F0BDF91DE094F8B836C8
:10240000002BF6D03D4B1B689B01F2D4374B0822C2
:1024100083F89126EFE73B4B1A68D4F8A436C8330B
:102420009A4205D90DF018FA012384F8913603E099
:102430000DF02CFA0028F5D10DF0F8F990B3012336
:1024400084F891362EE00DF021FA0028F4D04FF4F4
:102450008053A4F8AE360923E7E7BEF80E80EF8874
:10246000C7EB080B5C4502DD4744BC4214DBBEF8F9
:102470000E70B3F90080BC42CBBF6F888F88B1F873
:1024800002B0B5F800B0B845FFF61FAAD8454746D8
:10249000A8BF5F46FFF719BA4445CCBF6F882F88A5
:1024A000FFF713BA1DB0BDE8F08F00BF30A10108DF
:1024B0004AA101085FA1010867A101087BA10108E9
:1024C00087A10108702E002090A10108A1A1010898
:1024D000ABA10108BAA1010854120020C9A101084A
:1024E00010000020D9A10108E3A10108A0080020E4
:1024F000F0A1010809A2010814A20108BC110020E2
:10250000542B0020981C00202DE9F04F9F4FA04C29
:102510003A6889B002F59C43203323609D4B1E78B6
:10252000CEB19D4909688A4240F20781013E1E7082
:1025300003E1DFF88482072DD8F800308CBF2946EC
:10254000595D964B96481B689847032D09D904EBB3
:102550004505A88001360AF0FFFAF5B28542E8D3B6
:1025600020E0D8F8002005F10E0302EB8303D988A0
:102570001A890028EBD04FF47A73401A5843531A43
:1025800090FBF3F040F6C90300F57A70984205DC41
:1025900040F2EE239842B8BF184601E040F6CA0068
:1025A00080B2D4E742F2010A7E4B7F4E1B68D6F818
:1025B000008003EA0A0ABAFA8AFA4FEA5A1A7B4BEF
:1025C000BAF1000F05D194F828201A70784A517892
:1025D00011701B782BB1764B93F8009089F00109AC
:1025E00000E099460F23DFF8E8B184F82930002590
:1025F0000AF0B2FA854267DA6B00B9F1000F03D036
:102600006C4A32F8150000E048466B4ADFF8C4C156
:1026100011684FEA850ECA8A8242684A02D8098B3D
:1026200081421CD25CF80E005949804501D2D05A33
:1026300019E0E8B20392029301910AF0A5FA032D82
:10264000029B039A0FDC01994FF0010E91F829C00B
:102650000EFA05FE2CEA0E0E81F829E003E008F5DB
:1026600096714CF80E10BAF1000F28D194F8BC10F6
:102670000322B1FBF2F202EB42028A1AD2B203EB5E
:10268000050E724404EB4202508594F8BD202AB92D
:10269000022913D93E4A012182F8BD10BBF800205F
:1026A0003BF8020C1044BBF802201044444A80B2AC
:1026B000D05200B2032290FBF2F080B23F4AD052D7
:1026C00001350BF1060B93E794F829203D4BA2F15D
:1026D0000F014A424A4184F8D6206AB13A4A126848
:1026E000520109D43268D9689A60521AC82A1FD98F
:1026F000012283F821201BE02D4A01215170117025
:1027000032689968DA605B68521A9A4282BF2D4B30
:10271000002283F8212000250AF01EFA854207DAFC
:10272000E8B20AF031FA254B23F815000135F3E73A
:1027300094F8BC30013384F8BC301A4E3368DD04A1
:1027400005D5214B1B68D80701D40FF0FBF91A4BB4
:102750003F681B68987A00283ED0184A1B7B0138D6
:1027600032F810001BB1C0F53B60083080B200B2F7
:10277000A0F57A70B0F57A7FA8BF4FF47A7020EA9E
:10278000E0700FF085FD11495BE000BF542B002085
:102790005C0F0020941C0020901C002040030020AF
:1027A0006436002068130020981C002000220020BE
:1027B00004000020600F00208C1C0020B22D00209F
:1027C0001A1000209C1C0020BC11002000007A443C
:1027D000880F0020D00F0020326811043AD5D4F8B9
:1027E000D820934DBA1A002A34DB07F59C422032D8
:1027F000C5F8D8208F4A51798F4A32F811108AB221
:10280000D97A92FBF1F195F8DC20013202F00F0346
:1028100085F8DC302B4483F8DD100346874A825C60
:102820000130134410289BB2F8D11BB293FBF0F097
:1028300000B26428A8BF642020EAE0700FF028FDF1
:102840007F490FF02DFE7F490FF076FD0FF060FFFE
:102850007D4B188033687D4D13F4807F00F00F812D
:102860007B4BDFF8F0919F4205D999F8022012B90D
:10287000012289F8022099F80220002A00F0FF8046
:10288000744A95F8008092F82170C8F380087A1E87
:1028900057425741704A002F9246116818BF4FF0B7
:1028A000000BC1F38063019308BF4FF0030B99F84D
:1028B0002020052A00F2DD80DFE802F0034E537984
:1028C00088A5B8F1000F3AD0D4F8F000B4F8F410AD
:1028D00006F0ABF9012809D16049614A096812681C
:1028E000C988642000FB0122C9F81020019B6BB14C
:1028F0005A4A126812794AB10BF08AF9032289F810
:1029000020204FF47A72C9F81C20D0E7002F40F045
:10291000B080534AD9F8101010684E4A88420AD93C
:1029200002920BF075F9029A032182F8201040F60A
:10293000B831D161BBE7012182F82010B7E7019BD4
:102940004FF4806013B106F007FE01E006F0F4FDDD
:102950000022C9F810208CE0002F49D10BF058F963
:10296000A5E727B1052289F82020012000E038469C
:10297000B8F1000F0CD0D4F8F0204FF0020BD18941
:10298000384A118051809180344909684988D18042
:10299000334A1168D9F81420914202D8B8F1000FD7
:1029A00064D147F23052C9F81C20032221E02A7872
:1029B00042F002022A700FF0C5F8294AD9F81C101B
:1029C00012680A44C9F81820042212E0244A9FB170
:1029D0001168D9F8182091424BD9234A92781AB934
:1029E000DAF80020D30744D42A7822F002022A70B1
:1029F000052289F820205AE71268D9F81C100A44E9
:102A0000C9F8182035E01549154A09681268C988BF
:102A1000642000FB01224FF48060C9F810200022DE
:102A200089F8202089F8032006F086FD3FE700BFE3
:102A30005C0F0020E41B0020F41B00203910002054
:102A40000000C84200C07F4430120020C036002081
:102A5000404B4C009C1C0020BC1100206821002031
:102A6000981C0020B22D00200400002000287FF4D4
:102A70001EAFBBF1000F02D0584606F02DF9DFF86B
:102A8000C882A64F08F5C370B8F84E1106F0CDF80D
:102A9000CDF80480814628BBA14B1B6813F08058F9
:102AA00008D0FB7833B904F067F99E4B012818BFB2
:102AB000002018702B78580707D53368D90604D43E
:102AC000B8F1000F01D0FB7853B3974B01221B687C
:102AD0003A7103F57A73C4F8F830924BFA70002219
:102AE0001A701DE03368DA0615D42B785B0712D50F
:102AF0008B4B1B68D8000ED5FB7863B18A4B1A68E4
:102B0000D4F8F8309A4209D904F036F930B9854B37
:102B1000F870187002E0834B00221A7000233B719A
:102B20002B78590735D53368DA0632D57F4B1B78B9
:102B3000DB062ED4BB789BB1019B93F8E031B9F151
:102B4000000F15D17BB1784B1A68D4F8FC309B1A72
:102B5000002B08DA0EF0F6FF754B83F8009118E0B1
:102B6000B9F1000F0DD1102006F0B6F801230EE0E8
:102B70003BB16D4A4FF47A71126801FB0323C4F82C
:102B8000FC3094F8003123B106F092F8002384F869
:102B90000031019B002293F8DEB193F8DF11B3F806
:102BA00096E1B3F898C11346DFF8A0A19B083AF963
:102BB000120001327045C4BF63F07F03DBB2604591
:102BC000B8BF43F04003042AEED194F801215848DD
:102BD0009A4205D190F80221F92A04D8013200E086
:102BE000002280F8022184F80131BB78504ADFF8D6
:102BF000308133BBD8F80000C0070AD582F8033112
:102C0000B9F1000F1DD12B78DA071AD50EF0DCFDD3
:102C100017E02B785B0714D5464B1B788BB1464BDE
:102C2000DB7873B992F803310133DBB2032B82F8FE
:102C3000033106D911B10EF085FF02E0B9F1000FA2
:102C4000F9D094F802313A4A142BDFF8049140F09D
:102C50009F80BB781BF1000B18BF4FF0010B6BB3CB
:102C600092F801315F2B11D12B7803F0040303F0AC
:102C7000FF0113B10EF066FF08E00B2003910292F2
:102C800006F02AF8029A039982F80211BBF1000FAC
:102C900014D094F801317D2B10D12B7803F004036C
:102CA00003F0FF0213B10EF04DFF07E00B2002927C
:102CB00006F012F81E4B029A83F802212B7803F0DB
:102CC000040303F0FF01002B62D194F80131184A8C
:102CD000572B0BD1194B4FF47A721A80184B1B6883
:102CE0005F0755D5174B0A221A8051E0306840071C
:102CF00034D55A2B32D192F804312BB1012382F80A
:102D0000041182F8053143E092F8063183F00103A3
:102D100082F80631F3B10C201DE000BF0400002052
:102D2000BC110020C7360020981C0020B02B0020CA
:102D30005C0F0020002200209C1C0020BC360020DC
:102D400008130020BE360020702E0020B22D002077
:102D5000001200200D2005F0BFFF19E05D2B00F0F0
:102D6000AE845B2B00F0AD845E2B02D1032000F01B
:102D7000A9BC562B01D106F0E7FEBB78002B00F072
:102D8000B58494F801316F2B40F0AA840EF01CFD3D
:102D900033685B0738D594F80631B74A9BB12B7876
:102DA0005F0710D5019BBAF90610B3F89631994226
:102DB00009DDD8F8003013F0010302BF3221A2F878
:102DC000181182F80631D8F80030D8030DD594F8E0
:102DD0001A21A94B2AB993F8042112B93222A3F877
:102DE0001821012384F81A310EE094F80431A24A24
:102DF00053B12B7803F0040303F0FF0123B901233F
:102E000082F8041182F80531D9F800900023C8F83F
:102E1000003009F1870709F1D70A3A787B7817F86B
:102E2000010C9A420DD2394605F0B6FE48B117F8AA
:102E3000022C012303FA02F2D8F800301343C8F839
:102E4000003004375745E8D18C4B1B7853B18C4F79
:102E5000DFF848923B68DFF8488213F0020F40F039
:102E600033832BE309F1D60709F58F783A787B781D
:102E700017F8010C9A4225D2394605F08DFE08B3A9
:102E800097F804C00C21BB7801FB0C417D4A013B43
:102E900003EB43031344D1F8202197F803909A429F
:102EA00075480FD0C1F82031002390F84C21C1F8AB
:102EB0002431012303FA0CF322EA030381F81C9165
:102EC00080F84C3106374745D0D16F4BDFF8D4A19D
:102ED000D3F800806D4B4FF0000B1B6802936C4BD6
:102EE0001B780393DAF80020002A00F0DE8292F8C3
:102EF0000090B9F1000F00F0D882DAF8043002999E
:102F0000CB1A002B0CDB01F5FA73CAF8043094F8E5
:102F10004C11012303FA0BF321EA030384F84C312B
:102F2000039B002B00F0C1821AF8043C5178043353
:102F3000DBB2002940F07982564931F91310564B23
:102F4000B3F8943103F1C800814201DD977814E0B1
:102F5000C83B994202DA91784F420EE094F84C2136
:102F6000012303FA0BF322EA030384F84C31029B9A
:102F700003F5FA73CAF8043097E294F84C3143FA37
:102F80000BF3D90700F19182002FCCBF0220012062
:102F900005F0D8FE09F1FF32374B132A00F27D828B
:102FA000DFE812F0140023003200440061008200C8
:102FB000E7004C01B101E40113027B02440055001B
:102FC0008200E7004C01B9001E01830198F800104F
:102FD00040460F44FA2FA8BFFA2727EAE77788F878
:102FE000007005F0BFFD01201EE098F8011040467A
:102FF0000F44642FA8BF642727EAE77788F8017099
:1030000005F0B0FD02200FE098F8031040460F4491
:10301000642FA8BF642727EAE77788F80370D3F8FE
:10302000501105F057FD03203946CBE198F8051003
:103030000D2039446429A8BF642121EAE17188F890
:10304000051005F021FEB9F10D0F00F0268298F869
:1030500004100E2039446429A8BF642121EAE171DB
:1030600088F80410AEE198F806100520394481F381
:10307000080188F80610A5E15C0F0020C536002085
:10308000BC1100209880010838120020981C0020F4
:1030900000220020B22D0020702E002008130020F6
:1030A000B81100207C100020D3F854311A78022A7D
:1030B00022D1384604930FF0EBF8A9490FF0F0F94C
:1030C000049B596A05930FF02FF8002104900FF02C
:1030D000D1FA059B48B9049AA14910460FF0E8FAC5
:1030E000049A059B10B19E4A00E000225A620F200C
:1030F000114605F0B5FD0AE099780F203944C8293A
:10310000A8BFC82121EAE171997005F0BDFDB9F1B0
:103110000F0F00F0C281934BD3F8549199F800300F
:10312000022B1AD138460FF0B3F88D490FF0B8F9D9
:10313000D9F820100EF0F8FF002107460FF09AFA98
:1031400030B9384686490FF0B3FA10B1844F00E029
:103150000027C9F82070122057E199F801101220B9
:103160003944C829A8BFC82121EAE17189F80110B2
:1031700028E1D3F854311A78022A22D13846049330
:103180000FF086F876490FF08BF9049B196B0593C5
:103190000EF0CAFF002104900FF06CFA059B48B9AD
:1031A000049A6F4910460FF083FA049A059B10B1F8
:1031B0006B4A00E000221A631020114605F050FD12
:1031C0000AE0197B10203944C829A8BFC82121EA88
:1031D000E171197305F058FDB9F1100F00F05D8130
:1031E000604BD3F8549199F80030022B1AD138462D
:1031F0000FF04EF85A490FF053F9D9F82C100EF091
:1032000093FF002107460FF035FA30B9384654498C
:103210000FF04EFA10B1524F00E00027C9F82C70A1
:103220001320F2E099F80B1013203944C829A8BFE5
:10323000C82121EAE17189F80B10C3E0D3F85431B9
:103240001A78022A22D1384604930FF021F8464911
:103250000FF026F9049BD96B05930EF065FF002152
:1032600004900FF007FA059B48B9049A3C491046B0
:103270000FF01EFA049A059B10B1394A00E00022B3
:10328000DA631120114605F0EBFC0AE0997D11206C
:103290003944C829A8BFC82121EAE171997505F010
:1032A000F3FCB9F1110F00F0F8802E4BD3F85491D4
:1032B00099F80030022B1AD138460EF0E9FF2A495E
:1032C0000FF0EEF8D9F838100EF02EFF0021074667
:1032D0000FF0D0F930B9384621490FF0E9F910B1B3
:1032E0001F4F00E00027C9F8387014208DE099F8CE
:1032F000151014203944C829A8BFC82121EAE1715A
:1033000089F815105EE0D3F8549199F80030022B3B
:103310001AD138460EF0BCFF11490FF0C1F8D9F8A8
:1033200028100EF001FF002107460FF0A3F930B975
:1033300038460B490FF0BCF910B1094F00E00027E7
:10334000C9F82870092060E099F803100920394471
:10335000C829A8BFC82121EAE17189F8031031E02A
:103360000000C8425C0F002000007A44D3F854915A
:1033700099F80030022B1AD138460EF089FFA44983
:103380000FF08EF8D9F834100EF0CEFE002107466B
:103390000FF070F930B938469D490FF089F910B136
:1033A0009B4F00E00027C9F834700A202DE099F8FF
:1033B0000D100A203944C829A8BFC82121EAE171AB
:1033C00089F80D1005F060FC67E0D3F8549199F886
:1033D0000030022B1DD138460EF05AFF8D490FF0F8
:1033E0005FF8D9F840100EF09FFE002107460FF05D
:1033F00041F930B9384686490FF05AF910B1844F77
:1034000000E00027C9F840700B20394605F028FC81
:1034100043E099F817100B203944C829A8BFC821E8
:1034200021EAE17189F81710CCE7012935D19078AC
:10343000794A32F91370B7F5617F05DB40F6330343
:103440009F42A8BF1F4601E04FF46177B9F10C0F0E
:1034500023D14FF4966393FBF0F0A7F5617797FBC8
:10346000F0F76E4AFFB21378BB4216D0042F34BF78
:103470003B460223019913700E2202FB0313684A94
:1034800003F2BA73136006F057F94846394605F05F
:10349000FBFB781CC0B205F055FC94F84C210123CD
:1034A00003FA0BF3134384F84C310BF1010BBBF11E
:1034B000040F0AF10C0A7FF415ADC8E43368DA058D
:1034C0000FD5584BDB7863B1D9F800309B0708D58E
:1034D000B8F8003013F0010A08D1012006F03CF8DA
:1034E00004E0012006F028F8012300E000233A68F8
:1034F00050070BD553B1012006F01EF8B8F8003084
:10350000990706D4022006F027F802E0022006F010
:1035100013F8B8F80030444A13F0030F4FF01001CD
:1035200014BF51611161D9F8002012F00A0F2DD09B
:103530003A68D2060DD55B070ED4042006F00CF8CD
:103540003A4B0A22B3F9043093FBF2F3A4F8583152
:1035500002E0042005F0F0FF3B68980607D5B8F8B4
:103560000030590606D4402005F0F6FF02E0402066
:1035700005F0E2FF3B685A0641BF2C4B0A22B3F923
:10358000043093FBF2F348BFA4F85A313B684FF480
:1035900080701B0502D505F0DFFF01E005F0CCFFD0
:1035A000234B5A799A46082A01D00E2A02D140208C
:1035B00005F0C2FF33685E0518D59AF820321BB9B2
:1035C0002B7813F0040F02E03B6813F4002F09D0AE
:1035D000184B00221A703C2003F09CFB30B10CF019
:1035E000D9FEF8E707F020FA0EF0B9FB012384F8C2
:1035F0005C3194F85D31002B34D0D9F80030580795
:1036000030D53B68190717D4082005F095FF29E04D
:103610000000C84200007A44B22D0020242A002075
:10362000381200209C1C0020000C01401C120020BD
:10363000702E002028130020B8F8005005F008056F
:10364000ADB27DB9082005F087FF544B1A68544B82
:103650001A60544BDA88544BA3F85E21534B1D601B
:10366000534B1D6094F85D31002B00F09380D9F826
:103670000030DA0640F18E803B689B0206D44FF49E
:10368000007009B0BDE8F04F05F056BFB8F8004033
:1036900004F40074A4B2002C7CD14FF4007005F047
:1036A0005BFF3E4B1A683E4B1A603E4BDA883E4B3E
:1036B000A3F85E213D4B1C603D4B1C606AE001207D
:1036C00000E00220C7B2019A7B1E82F8B83705F0ED
:1036D0008DFF06F055F8384605F034FBFFF758BB70
:1036E000BBF1000F02D07E2B3FF450AB94F80131B8
:1036F0002D4A972B05D14FF4C873A2F80831FFF774
:1037000047BBA72B06D12B4A137843F00403137051
:10371000FFF73EBB0021BB2B079101D1022303E041
:10372000B72B04D14FF6FE73ADF81E3009E0BE2B67
:1037300001D1022303E0BD2B1AD14FF6FE73ADF881
:103740001C30D9F80030BDF81C10B3F864200A44CE
:10375000A3F86420BDF81E10B3F866200A44A3F84D
:10376000662006F0F1F9002384F80231FFF710BB60
:10377000792B04D192F80F3123F0010306E07A2B64
:103780007FF406AB92F80F3143F0010382F80F315A
:10379000FFF7FEBA09B0BDE8F08F00BF2412002089
:1037A000902B0020B22D00205C0F0020982B0020D1
:1037B0009C2B0020B02B00202DE9F04FB24B8DB098
:1037C0001E780093002E00F0AE80B04F3B68002BB7
:1037D00000F0DC87386809F098FE002800F0D687F2
:1037E000AA4BAB4D186809F08DFE092801D03F287F
:1037F00050D14FF0000A5646D5F80080A54CB8F1DC
:10380000000F05D0A4482168424611F0E1FF10B92D
:10381000A24606B92646A14B10349C42EFD3C6B14E
:10382000D6F800E0DAF800C02B681EF803401CF858
:103830000300A0420DD15A1C974938B92D2B05D849
:10384000934C22602024CC54885402E0CC542A604B
:10385000EAE72B680BB1564511D091480CF09EFE5B
:10386000564507D856F8100B0CF098FE09200CF0BE
:103870008DFEF5E78B480CF091FE4FF000082B68A9
:103880009845A7D2844B13F808000CF07FFE08F18E
:103890000108F4E72B68002B40F0FD86042840F077
:1038A0005A877D4806F09CFA00F070BFDBF80000F4
:1038B000DFF8048209F029FE18B3D8F8000009F0F7
:1038C00021FE2368814693F8481000293CD1242822
:1038D00076D1012283F848202368DFF8D88193F855
:1038E0004820062AE2D193F8490001F09FFE0446E1
:1038F000002800F08D800CF099FD3B68002283F8D1
:103900004820694B1B7953B15AF8060004F07AFF3E
:103910000AF062F805F040FE644A654BDA604C3606
:10392000982E00F03387DFF8ACA106EB0A0393F87A
:103930004A20012AF3D15F4F5F4D3B6056F80A30B1
:103940003C462B60AB46B1E7012904D14D2814BF9A
:1039500000220222BEE7022904D13C2814BF002223
:103960000322B7E703290CD140284FF0000102D908
:1039700083F84810B0E758711971D9719871042211
:10398000A8E7042907D1997983F8490080EA010260
:103990009A7105229EE705299ED1587919798842A6
:1039A000987908D989EA00009871481C18710B446D
:1039B00083F8089090E748450CBF0622002289E76B
:1039C0003E4B19784A0787D42328D8F8001012D123
:1039D0000193009B012018702C480160324801605F
:1039E00037480CF0DBFD2F480CF0D8FD019B19780F
:1039F00041F002011970334B1B681B784B4501BF26
:103A0000314A324B1A60294A04BF294BDA6063E716
:103A1000D8F8002092F849304A2B00F0338676D847
:103A2000332B00F0478422D8292B00F0E38309D8F8
:103A3000252B00F09D83272B00F0BC83232B40F027
:103A400026865CE22D2B00F0E78308D82B2B40F074
:103A50001E860CF0BFFC1E4B587100F013BE2F2BBE
:103A600000F08A84312B00F09A8400F010BE3E2BC7
:103A700000F0278138D8372B00F04E842CD8352B16
:103A800000F0748200F003BEC5360020482A0020F2
:103A900080190020648B010850190020348D010822
:103AA000F0A20108F5A20108BC1000200400FA05EC
:103AB00000ED00E0402A0020442A0020C03600200B
:103AC00025A3010824130020EFBEADDEF04F002037
:103AD000702E0020D82D0020392B00F079833C2B4C
:103AE00000F0FA8000F0D3BD432B00F0F38304D83C
:103AF000412B40F0CC850024E2E3442B00F080848D
:103B0000482B40F0C4850CF0A9F900F0BBBDD02BC8
:103B100000F0088361D8CA2B00F0F48017D84E2B30
:103B200000F09E83C82B00F0A1804C2B40F0AF85A5
:103B30000CF050FCB44C84F8D6010CF04BFC84F82B
:103B4000D7010CF051FCA4F8D80100F09BBDCD2B9F
:103B500000F0F48204D8CC2B00F02F8200F097BD47
:103B6000CE2B00F0F582CF2B40F091850CF03CFC81
:103B70006FF4AF6403199BB2A34CC62B98BFA4F893
:103B800094010CF031FCA4F840010CF02DFCA4F8D9
:103B900042010CF029FCA4F844010CF025FCA4F827
:103BA000D8010CF017FC0CF015FC0CF013FC0CF019
:103BB00011FC84F883010CF00DFC84F890010CF0EA
:103BC00009FC924B1D680CF00FFC00EB80004000DC
:103BD000A5F862000CF0FEFBFDE2D82B00F02C8172
:103BE0000ED8D32B3CD003D8D22B25D000F04FBD1C
:103BF000D42B00F02982D62B40F0498500241AE20C
:103C0000F22B00F066820FD8EF2B40F040857F4CFE
:103C100025680CF0E9FBA5F8660024680CF0E4FBCD
:103C2000A4F8640000F02EBDF32B00F0ED83FA2B16
:103C300000F0998200F02BBD754B1B7803F0040354
:103C400003F0FF04002B40F01D850CF0C3FB6E4B0E
:103C5000022883F8B80740F26C8283F8B84768E21C
:103C60000CF0C2FB6B4B188000F00CBD547964085B
:103C7000122C03D903F0A6F800F004BD0025A542DC
:103C800006D20CF0B1FB03AB23F815000135F6E7C3
:103C900022460023A34207DA03A931F813005E4944
:103CA00021F813000133F5E7122A05D05A4B002101
:103CB00023F812100132F7E7584B01221A7000F076
:103CC000E1BC0CF087FB504C84F8E0010CF082FB67
:103CD00084F8DF0100F0D6BC4C4C25680CF07AFB70
:103CE00018B10228A8BF022000E001202870236834
:103CF0001B78022B18BF4A4A4A4B08BF4A4A1A602F
:103D000000F0C0BC414D2B681B78022B62D1D5F866
:103D100000800CF05FFB0EF0B7FA44490EF0C0FBD8
:103D200004F1080B48F82B00D5F800800CF052FB8A
:103D300004F10A0308EB83080EF0A6FA3C490EF0E2
:103D4000AFFBC8F80400D5F800800CF043FB0EF080
:103D50009BFA38490EF0A4FB04F10E0B0134032C3E
:103D600048F82B00D3D1072CD5F800801AD10CF0DD
:103D700031FB0EF089FA2D490EF092FBC8F8440091
:103D8000D5F800800CF026FB0EF07EFA27490EF0E5
:103D900087FBC8F84800D5F800800CF01BFB88F8BA
:103DA0004C0012E00CF016FBA04488F80100D5F896
:103DB00000800CF00FFBA04488F80B00D5F80080C1
:103DC0000CF008FBA04488F8150001340A2CCAD175
:103DD00000F058BCD5F800800CF0FCFAA04488F83C
:103DE0000100D5F800800CF0F5FAA04488F80B002B
:103DF000D5F800800CF0EEFAA04401340A2C88F8C3
:103E00001500E7D100F03EBC702E0020001200200B
:103E1000C0360020B4100020DC1A0020CD2B00207A
:103E2000A9CC00080C000020A5CF0008000020410C
:103E30000000C84200007A44D14D04F1080BD5F8C7
:103E400000800CF0D1FA0EF01FFACE490EF028FBDC
:103E500048F82B00D5F800800CF0C6FA04F10A03EC
:103E600008EB83080EF010FAC6490EF019FBC8F8EB
:103E70000400D5F800800CF0B7FA0EF005FAC1493D
:103E80000EF00EFB04F10E0B0134032C48F82B004E
:103E9000D2D1072CD5F800801AD10CF0A5FA0EF07B
:103EA000F3F9B8490EF0FCFAC8F84400D5F80080E0
:103EB0000CF09AFA0EF0E8F9B2490EF0F1FAC8F8EF
:103EC0004800D5F800800CF08FFA88F84C0012E01A
:103ED0000CF08AFAA04488F80100D5F800800CF0B4
:103EE00083FAA04488F80B00D5F800800CF07CFA27
:103EF000A04488F8150001340A2CCAD1C2E30CF0A2
:103F000069FA132804463FF6B5AE9D4DD5F80080FA
:103F10000CF060FA00239C490C2202FB0312117A78
:103F200081421FD1137808EB840484F885300CF0AB
:103F300051FA84F886000CF04DFA84F887000CF0F2
:103F400049FA924A924B84F888001A602868914B8B
:103F500000211860853004F057FE8F4B80F001007F
:103F600018708FE301331E2BD5D183E60CF032FAA3
:103F70000B2805463FF67EAE814B1C680CF02AFAF2
:103F800003283FF677AE062303FB054484F8DA00E6
:103F90000CF020FA84F8D5000CF01CFA84F8D60056
:103FA0000CF018FA84F8D7000CF014FA84F8D80052
:103FB0000CF010FA84F8D90064E35379092B7FF6EA
:103FC00059AE764C25680CF005FA287025680CF07F
:103FD00001FA68700CF0FEF923686428A8BF642019
:103FE00018710CF0F7F923686428A8BF6420587191
:103FF0000CF0F0F92368FF28A8BFFF2098710CF09F
:10400000E9F92568642828BF6420E8710CF0E2F91A
:10401000A87025680CF0DEF9E87025680CF0E4F96A
:104020003B6868815B790A2B40F22C8324680CF092
:10403000D1F9607226E30CF0D7F9594B23F814003C
:104040000134082CF7D11DE353790F2B7FF412AE06
:104050000CF0C0F9072804463FF60CAE484DD5F8E1
:1040600000800CF0C1F90E235C43A044A8F82501A0
:10407000D5F800800CF0B8F9A044A8F82701D5F8CD
:1040800000800CF0B1F9A044A8F82901D5F800800F
:104090000CF0A0F9A04488F82B01D5F800800CF0B2
:1040A00099F9A04488F82C01D5F800800CF092F919
:1040B000A04488F82D01D5F800800CF08BF9A044BD
:1040C00088F82E012D680CF099F92B19C3F82F01EF
:1040D000D8E20CF07FF90F2804463FF6CBAD0CF088
:1040E00079F9304BC4EBC4041C4484F8D0000CF0C4
:1040F00071F984F8D1000CF06DF984F8D2000CF05D
:1041000069F984F8D3000CF065F984F8D4000CF058
:1041100061F984F8D5000CF05DF984F8D60009F057
:104120009BFCAFE2204B1B78580700F1AB820BF0F1
:104130008BF805F05BFA05F023FBA3E21A4B1B7822
:10414000590700F19F82194B4FF4C8721A8099E207
:10415000154B1B785A0700F19582154A137843F0E6
:10416000040313708EE2104B1B785B07E1D58EE2DF
:104170000C4B98600CF042F905F006FA82E200BFA1
:104180000012002000007A4404810108B02F0020B2
:10419000AC100020B01000200600002038120020D3
:1041A000262A0020702E0020C03600206410002037
:1041B000B02B00200CF018F9C94CA4F858010CF0F1
:1041C00013F9A4F85A010CF00FF9A4F85C0159E2B4
:1041D0000CF000F9C24C84F878010CF0FBF884F87C
:1041E0007C010CF0F7F884F87B010CF0F3F884F80C
:1041F0007D0147E20CF0F8F8B94CA4F87E010CF010
:10420000F3F8A4F880010CF0E5F884F882010CF0D2
:10421000EBF8A4F8840135E20CF0DCF8B04C84F83B
:104220008E010CF0E1F8A4F898010CF0DDF8A4F888
:1042300094010CF0D9F8A4F896010CF0CBF8D8F85A
:10424000003084F88F015B79082B40F21B820CF060
:10425000CBF8A4F89C010CF0C7F8A4F89E0111E279
:1042600054790323B4FBF3F4122C3FF603AD9C4DB9
:104270004FF00008A04580F005820CF0ABF885F8FF
:10428000A0010CF0B1F840F2ED23984205DD40F6B4
:10429000CA039842A8BF184601E040F2EE20A0F2FF
:1042A000EE20192390FBF3F008F1010885F8A10135
:1042B0000235DFE70CF08EF8894B83F89001E1E1DD
:1042C0000CF088F8864B23440134082C83F88601CF
:1042D000F6D1D7E10CF07EF8814D6871AC600CF03E
:1042E0008DF805F051F90CF075F885F88E010CF099
:1042F0007BF8A5F858010CF077F8A5F85A010CF0F6
:1043000073F8A5F85C010CF06FF8A5F87E010CF0CD
:104310006BF8A5F88001B5E153790724B3FBF4F2FB
:10432000C2EBC2029A1A12F0FF0F7FF4A3ACB3FBE8
:10433000F4F4013CE4B2FF2C00F0A4810CF04AF844
:104340005FFA80F84FFA88F004F0E4FA0546002896
:104350003FF490AC80F800800CF046F868800CF0D8
:1043600039F828710CF036F868710CF033F8E87100
:104370000CF030F8A871DCE7594C04F140050CF062
:1043800033F8A4F8B0020CF025F884F8B2020CF06F
:1043900021F8043484F8AF02AC42F0D172E10CF0A1
:1043A00019F81F2804463FF665AC3B685B79082B7B
:1043B0007FF460AC0CF018F8DFF824818C3408EB43
:1043C000840500F03F0068800CF00EF86B888001D7
:1043D00000F4FE50184368800BF0FCFF000108F861
:1043E00024000BF0F7FF18F8243000F00F001843FA
:1043F00008F824000BF0EEFF687006F01BFF41E1A7
:10440000384B01221A713DE10BF0E4FFFF28804692
:10441000344C6BD1002504F10800294660226571F7
:1044200011F089F98DF80B509DF80B3094F86A2043
:10443000DFF8B0809A4249D99DF80B3008EBC303EE
:1044400093F86D30DD073AD59DF80B3008EBC303C8
:1044500093F86C20244B33F91230002B2FDD9DF89C
:104460000B3098F8055008EBC3031B6F4FEAC50EDD
:1044700058689DF80B3008EB0E0108EBC308D8F81C
:10448000703088601A89CA8192B2002101238B4062
:10449000134003D101311029F8D100E00B4604EBA1
:1044A0000E018B8148238DF80E3003A901230135BD
:1044B000ADF80C208DF80F3002F075FF65719DF896
:1044C0000B300133DBB28DF80B30ADE701200BF080
:1044D000D1FF98F805000BF09AFFFFF70CBA00BF68
:1044E000702E0020BC100020041200206379984236
:1044F000BFF4C0AB00200BF0BDFF0BF097FF3B6893
:10450000186804F07FF928680BF044FF04F0D0FB32
:1045100072B6A04D4FF480634FF4007B6B614FF097
:104520000109C5F814B02846ADF80C3003A948239A
:104530008DF80E308DF80F904FEAC80802F033FF67
:104540001023284603A98DF80E30ADF80CB08DF875
:104550000F9002F028FF04EB08018B898A68D808C5
:1045600002EB8002C4F8CC208A6803F0070352F8FB
:1045700020209B00C4F8D020C4F8D4200F229A40F9
:10458000D243D4F8D4E009FA03FC02EA0E0EC4F8D0
:10459000D4E0D4F8D0E002EA0E02C4F8D020D4F877
:1045A000D4204FF0080E0EFA03FE4EEA0202C4F8C1
:1045B000D420D4F8D0204CEA0202C4F8D020D4F899
:1045C000D0308A6842F820308B68CA891A61C5F8F1
:1045D00010B0AB685805FCD46F4B0824D3F8D0104A
:1045E000D3F8CC2040F6055B116003EB080290681D
:1045F000D2894FF400714261696168490C611024ED
:104600004C611C46AB68590505D4BBF1000FF9D0CD
:104610000BF1FF3BF6E74823026103A98DF80E304A
:104620000123ADF80C208DF80F3002F0BCFE5B4B7F
:1046300010221A61BBF1000F14D0AB68554A5B051C
:10464000CAD504EB08018B68C9899B684FF40070D8
:104650001942524B4FF0080115BF106150611961AA
:104660005961EAE74B4A4FF40071116108221A615F
:1046700062B60A2008F001FF0DF071FB3B68F322DF
:1046800083F8492000200BF0F5FEFFF734B902F063
:1046900099FBFFF730B90C2803D141480BF07EFF9E
:1046A0004BE00A2801D00D2849D13E4C3E480BF082
:1046B00075FF2046232111F074F808B1001B286013
:1046C0002B688BB35A1EA15C202901D11346F8E751
:1046D000344A00212B60D154344B354CD3F800A020
:1046E000D4F800B0DFF8BC80584611F068F80646F0
:1046F00059463246404611F06BF82E4A28B918F850
:10470000063053445B78590703D010349442E7D302
:1047100006E0944204D2701CE3684044984702E0EB
:1047200025480BF03BFF00231E48002130222B6060
:1047300011F001F8009B1B7843B3204807E07F2865
:104740000FD1184A013B00211D482B60D1540BF0BA
:1047500025FFFFF73FB80C289FD07F2804D1FFF733
:1047600039B82F2B3FF636A8A0F12002D2B25E2A2C
:104770003FF630A813B920283FF42CA85A1C2A6011
:10478000084AD0540BF002FFFFF724B80DB0BDE883
:10479000F08F00BF00080140BC100020000C014059
:1047A000FAA20108501900208FB00108540300201C
:1047B000648B0108348D010805A30108F5A20108E6
:1047C00021A301086B4B6C4A2DE9F04F5E891468F8
:1047D0004FEA062AB4EB0A0A9C884FF000054FEA1C
:1047E00004481C894FF0000BA4FB0A6765EB0B0B18
:1047F00004FB0B77F40944EA476418EB04065C8871
:104800004FF000094FEAE7154FEAC438DC8849EB5E
:10481000050787B0CDE90467A4FB0A6704FB0B77A3
:10482000340A44EA076418EB04064FEA27259C89FA
:104830004FF0000949EB0507CDE90067AAFB0467C3
:1048400004FB0B77F40D44EA472414F5FA664FEAAB
:10485000E75545F10007B6F5FA6F77F10003CDE9AA
:104860000267964666DADDE90489A4FB046704FB67
:1048700005F34FF0050C07EB4307A6FB0C230CFBDD
:1048800007335F104FEA3206B8EB06084FEA92068C
:1048900046EA837669EB07099F10DDE90023921B46
:1048A00063EB0703CDE90023DDE90267334A4FF0EC
:1048B000FF33964277EB0303CDE9048927DA40F60C
:1048C000AC520023A4185D4104FB05F3A4FB04458E
:1048D0006FF0060205EB4305664202FB0566A4FB8A
:1048E0000223334418EB020649EB0307CDE90467C2
:1048F0000B26A4FB062306FB0533DDE900455B1010
:104900004FEA3202A41A65EB0305CDE90045DDE963
:1049100002450AFB0BF3AAFB0AAB0BEB430B4FEA76
:10492000DA7242EA4B02A41A4FEAEB7365EB030515
:10493000CDE90245DEF80440009B019DA4FB032362
:1049400004FB05334FEA525848EAC3284FEA63593B
:10495000DDE90423B8EB020269EB03039946D30BAC
:1049600043EA494300B1036009B1029B0B6007B001
:10497000BDE8F08F801200209411002024FAFFFF80
:104980002DE9F04F87B06C4C02916C4922888E68FB
:104990000546C2EB26135B435200C2EBE602B4F9B4
:1049A00002601B135643B4F90420B4F90A005343C0
:1049B0009B1303EBE62606EB860380331B12B6F54A
:1049C000FA384FEAE6770493CB6847F1FF39A8FB42
:1049D00008AB039308FB09F3B4F908200BEB430B76
:1049E000E389A6610593D31708FB03F102FB0911C4
:1049F000A8FB02230B44C1171F030AFB01F300FBB2
:104A00000B33AAFB00011603194447EA1257020AA6
:104A100042EA016292194FEA2123E6887B41003283
:104A2000A2FB060143F5004306FB03114B10009364
:104A3000CB170193DDE900231343B4F810E0B4F879
:104A40000CC06DD00FFA8EF0C1170AFB01F1AAFB62
:104A5000002300FB0B11BDF914600B44F71708FB92
:104A600007F106FB0911A8FB06670F4479047004DF
:104A7000801841EAD6315941039B0FFA8CF8C3F5EF
:104A8000801E7246D317002212184FEACE764FEAE4
:104A9000C3774FEAC8034B4147EA5E07B61A67EB94
:104AA000030740F63543A6FB030103FB0711DDE9CD
:104AB00000230DF04DFEB4F916204E1302FB06FE46
:104AC000470B47EAC147D31707FB03EEA2FB0723B7
:104AD0005643734407FB0366A2FB07233344560E79
:104AE00046EAC3168219B4F914604FEA636741EBD2
:104AF00007037143F71700FB0717A6FB00013944B2
:104B0000C60C46EA413692194FEAE1474FEA1221B4
:104B1000B4F912207B4141EA036113010B4400E028
:104B200000230DB11B0A2B60029B13B11A46049B94
:104B3000136007B0BDE8F08FEC1200209411002044
:104B4000704770472DE9F041324C334D62892B8A12
:104B5000B4F904809A1A2389B4F902E05A43B4F9EB
:104B60001230D613B4F91420DB02324493FBF2F274
:104B700032440A26E2615643A2F57A6202FB02F34E
:104B8000B4F90EC002FB0EFE02FB08F2B4F90C8071
:104B90001B130CFB03FC03FB08F31B1403EB623237
:104BA0000232E388921002F5004253434CF2503235
:104BB000B4F920704FEAEE2EB4F900400EEBEC2C65
:104BC0000CEB8404BC406D690234A5EBA4043A41AB
:104BD00062434FEAD3384EBFB2FBF8F35400B4FB44
:104BE000F8F340F6DE3448BF5B001A1252436243CA
:104BF0000A4C08365C43241404EB224202F6CF62CE
:104C0000361103EB221300B1036001B10E60BDE861
:104C1000F08100BF941200209411002043E3FFFFB5
:104C200013B50C4B04465B681B20022101AA984770
:104C300070B19DF804209DF8053043EA022303F586
:104C40004E5310334FF48C7293FBF2F323332380D3
:104C500002B010BD6C120020054B1A7E02F0FF015D
:104C600022B10122027000221A767047017070474B
:104C70009411002037B5104B04465D681878062162
:104C80006A46A847A8B19DF800209DF80130012090
:104C900043EA022323809DF802209DF8033043EA73
:104CA000022363809DF804209DF8053043EA022327
:104CB000A38003B030BD00BF6C12002013B5104BB1
:104CC00004465B683B2006216A469847A8B19DF8D8
:104CD00000209DF80130012043EA022323809DF843
:104CE00002209DF8033043EA022363809DF80420EC
:104CF0009DF8053043EA0223A38002B010BD00BF37
:104D00006C12002010B5224C2368998A89B211F4E4
:104D1000706F1EBF1F4A0120507611F4E06F2BD038
:104D20001A8B9A88890522F480624FEA02424FEA80
:104D300012429A8020D41A8892051DD41A88D00570
:104D40000FD51A88D105FCD41A8892B242F40072A9
:104D50001A801A889205FCD40F4B187802F0C9FF0C
:104D60000AE01A8892B242F400721A809A8822F4F9
:104D700040721204120C9A802268938A23F47063A2
:104D80001B041B0C9382054B00221A7010BD00BF40
:104D9000E418002094110020E8180020FC180020DE
:104DA000054A08B5138801339BB21380034B18786A
:104DB00002F09FFF002008BDB6110020E818002077
:104DC00008B54FF4804007F0DFFC012801BF044B19
:104DD0004FF480425A61034B08BF987608BD00BF6C
:104DE000000401409411002010B5074C2368186995
:104DF00007F0CAFC30B123681A69044B5A61044BAE
:104E000001221A7610BD00BF781200200004014074
:104E100094110020F8B50E461746084C4FF4805503
:104E2000656140F080000CF025FF384600213246D5
:104E30000CF0EAFE25610120F8BD00BF000C014026
:104E400070B50E46054C4FF4805565610CF012FFAD
:104E500030460CF00FFF2561012070BD000C0140B1
:104E600070B5104C0546192008F007FBA368152003
:104E70000021984710B9022003F07CFFA36845F099
:104E8000180116209847A368002117209847A368A7
:104E900001213D209847A3683E200121BDE87040D4
:104EA000184700BF6C120020F0B5274D85B0EB7E8F
:104EB000002B46D1254C2368002B42D01A68244E83
:104EC00012B1B1690A43B2619A889868ADF80020BE
:104ED00002228DF80320694604228DF8022002F098
:104EE00062FAB369002743F00103B3612368012626
:104EF000187B197D02F042FA2368164993F91500D0
:104F000008F0DCFA2368144A1B69536102930823F2
:104F10000DEB03008DF80D308DF80C708DF80E60E0
:104F200007F003FC236801A85B7D8DF806708DF8FF
:104F3000043003238DF805308DF807600CF046FE31
:104F4000EE7605B0F0BD00BF94110020781200206D
:104F500000100240E94D00080004014037B5054645
:104F6000FFF7A2FF254B1A68254B9A420ED14FF44A
:104F70000053ADF8043002238DF807300423214894
:104F80000DEB03018DF8063002F00DFA1E4CFFF711
:104F90008BFFA36880216B209847642008F06DFA8E
:104FA000A368072168209847642008F066FAA36880
:104FB00000216B209847642008F05FFAA368012164
:104FC0006B209847A36818211B209847A3681021DD
:104FD0001C209847A36829461A2098470B4AA368C3
:104FE000117819209847A368122137209847A368A1
:104FF00001213820984703B030BD00BF5000002089
:10500000001BB700001001406C1200200C130020A0
:1050100008B5FFF749FF024B4FF480521A8008BDD4
:105020001000002070B50546154CFFF73DFFA36842
:1050300080216B209847642008F01FFAA3680321A1
:105040006B2098470F4AA3681178192098470F20C2
:1050500008F013FAA36829461A209847A368182174
:105060001B209847A36810211C209847A3680221A1
:1050700037209847A36838200121BDE870401847C1
:105080006C1200200C13002008B5FFF70DFF074B32
:105090005B7813B1012B03D008BD4FF4006201E02F
:1050A0004FF48052024B1A8008BD00BF68120020E6
:1050B0001000002010B54000204CC0B220702048E5
:1050C000204C0170204800210170012020701F4CED
:1050D00023601F4C23601F4B1A701F4A1F4B107018
:1050E00059761F49086811461A4630B383889C05D3
:1050F00015D40388DB050DD447F230530488A4058A
:1051000002D5013BFAD112E08BB103889BB243F484
:105110008073038083889BB243F44073838047F29B
:105120003053087810B1013BFBD100E013B9BDE862
:10513000104035E6507E80F0010010BDEE180020D2
:10514000EC180020EA180020F4180020F0180020C5
:10515000F8180020ED180020FC1800209411002001
:10516000E418002007B5002101AB03227720FFF7E8
:10517000A1FF9DF805309DF804001B0243EA00439F
:105180009DF80600184303B05DF804FB08B5FFF76F
:10519000E9FF014B586008BD9411002008B5FFF7E6
:1051A000E1FF014B186008BD9411002007B5F721FD
:1051B0006B4606227620FFF77DFF9DF800309DF8B4
:1051C00001101B0343EA01139DF80210094A43EA48
:1051D0001113D3609DF803309DF804101B0343EABC
:1051E00001139DF8051043EA1113936003B05DF8B5
:1051F00004FB00BF941100200F4B13B51B780F4C1C
:105200000BB1A37EB3B1032201AB7720F621FFF7E8
:1052100051FF9DF805309DF804201B0243EA02432C
:105220009DF806201343064AB2F92020C2F1080275
:10523000D340636102B010BD24000020941100200F
:10524000941200200A4B13B51B780A4C0BB1A37EB5
:1052500063B1022201AB7720F621FFF72BFF9DF807
:1052600004209DF8053043EA0223238202B010BDDA
:10527000240000209411002030B505460C4613464A
:1052800029462246BDE83040682013E713B50622C0
:10529000044601211C206B46FFF70CFF08B39DF864
:1052A00001309DF80020042143EA022242F38D02DE
:1052B00092FBF1F29DF8023022809DF8032042EA31
:1052C000032242F38D0292FBF1F29DF804306280DA
:1052D0009DF8052042EA032343F38D0393FBF1F38A
:1052E000A38002B010BD13B5062204460221182087
:1052F0006B46FFF7DFFEB8B19DF800309DF8012046
:105300009B0803EB022323809DF802309DF80320C5
:105310009B0803EB022363809DF804309DF8052071
:105320009B0803EB0223A38002B010BD314B2DE993
:10533000F3411B780546002B3BD000242646274628
:10534000A04601345320322108226B46E4B2FFF715
:10535000B1FE08B9002049E09DF801209DF8003019
:10536000202C03EB02231BB29DF8032098449DF8E8
:10537000023003EB02231BB21F449DF805209DF869
:10538000043003EB02231BB21E449DF8073003F0E8
:105390007F0301D0002BD4D198FBF4F897FBF4F7EE
:1053A00096FBF4F6144BA5F800806F80AE801C7756
:1053B0001CE05320322106226B46FFF77BFE0028BB
:1053C000C8D09DF801209DF8003003EB02232B800C
:1053D0009DF803209DF8023003EB02236B809DF8BB
:1053E00005209DF8043003EB0223AB8002B0BDE83A
:1053F000F08100BF7E1200209411002013B502AB93
:1054000003F8012D4000214AC0B21070204A00204C
:105410001170204901220A701F4908701F490B6052
:105420001F490B601F4B20491A700A701F4B204AFE
:10543000587610681A4630B383889C0515D40388C3
:10544000DB050DD447F230530488A40502D5013B97
:10545000FAD112E08BB103889BB243F480730380CE
:1054600083889BB243F44073838047F230530878BB
:1054700010B1013BFBD100E013B9FFF791FC02E052
:10548000507E80F0010002B010BD00BFEE18002079
:10549000EC180020F4180020EA180020F81800206A
:1054A000F0180020ED180020FC18002094110020B6
:1054B000E41800207720482101229FE77720582117
:1054C00001229BE77620F421312297E7064B002149
:1054D00093F82020054B9201343299767720F421FD
:1054E00002F0FC028AE700BF941200209411002011
:1054F000034B00229A767720F4212E227EE700BF0C
:105500009411002003460A466820194676E713B531
:1055100000222A211C20FFF771FF0E2102221C20ED
:10552000FFF76CFF0F2103221C20FFF767FF2B21E1
:1055300012221C20FFF762FF164A022493691648C4
:1055400043F0040393612023ADF8043004230DEBF2
:1055500003018DF806308DF8074001F024FF224644
:105560002C211C20FFF74AFF2D2101221C20FFF7D0
:1055700045FF2E2100221C20FFF740FF2A21052293
:105580001C20FFF73BFF054B4FF480721A8002B0DE
:1055900010BD00BF001002400008014010000020B4
:1055A00008B50F2108221820FFF728FF0E22182027
:1055B0001021FFF723FF024B4FF480521A8008BDE1
:1055C0001000002008B5134B53201B782D21082212
:1055D0007BB1FFF713FF31210A225320FFF70EFFA3
:1055E0002C210C225320FFF709FF53203821902251
:1055F00009E0FFF703FF31210A225320FFF7FEFEE7
:1056000053202C210A22FFF7F9FE40F20912024B27
:105610001A8008BD7E1200201000002002F064BC39
:10562000FFF770BB02F060BCFFF76CBB2DE9F04FD9
:105630004728A1B0044600F0748600F2CE802E28E0
:1056400000F0238667D8222800F0CB8423D80328D3
:1056500000F0468214D8012800F03782022840F07A
:10566000AD8604200AF006FF42200AF0D0FE542046
:105670000AF0CDFE46200AF0CAFE4C2000F0DABD4A
:10568000042800F03782052840F098861A200AF096
:10569000F1FE002440E2282800F0948515D8242843
:1056A00000F07B85262840F08986C94C06200AF048
:1056B000E1FEB4F858010AF0E0FEB4F85A010AF02D
:1056C000DCFEB4F85C0100F057BD2A2800F08D859F
:1056D0002C2840F07386BE4C0C200AF0CBFE94F8C8
:1056E0008E010AF094FEB4F898010AF0C6FEB4F8F0
:1056F00094010AF0C2FEB4F896010AF0BEFE94F8D6
:105700008F010AF084FEB4F89C010AF0B6FEB4F8EA
:105710009E0100F031BD3A2800F0F5821DD83428F2
:1057200000F094840DD8302800F0C585322840F070
:10573000458601200AF09EFEA54B93F8900100F0EB
:1057400079BD362800F08785382840F03786042058
:105750000AF090FE9E4C00F026BD402800F06D85BA
:1057600011D83B2800F036843D2840F02786984C1D
:1057700002200AF07FFE94F8E0010AF048FE94F857
:10578000DF0100F057BD452800F0ED8500F2B88537
:10579000422840F013868E4C10200AF06BFE607990
:1057A0000AF035FEA0680AF071FE94F88E010AF046
:1057B0002EFEB4F858010AF060FEB4F85A010AF05F
:1057C0005CFEB4F85C010AF058FEB4F87E010AF001
:1057D00054FEB4F8800100F0CFBC6F2800F0E882DE
:1057E00000F2FE80662800F0D38100F2C7804D28C9
:1057F00000F0018515D8492800F0D4824B2840F0EC
:10580000DD85734C04200AF035FE94F8D6010AF0C9
:10581000FEFD94F8D7010AF0FAFDB4F8D80100F0C3
:10582000ABBC642800F09181652840F0C785694CC5
:105830000B200AF01FFE20880AF01FFE608880B24D
:105840000AF01BFE644B1B68C3F3C000C3F3800265
:10585000800040EA4200C3F340021043C3F3401209
:1058600040EAC20003F0100318430AF006FEA188C4
:10587000A36801F0080203F4475B4BEA020B03F450
:1058800080424BEA020B03F400424BEA020B03F4A2
:1058900080324BEA020B03F400324BEA020B03F4B2
:1058A00080224BEA020B03F400224BEA020B4B4A24
:1058B00003F480104BEA0000127803F0007B40EA0A
:1058C0000B0B03F0805311F0010FC2F380024BEA7F
:1058D000030314BF4FF0020A4FF0000A134311F004
:1058E000020F14BF4FF004094FF0000943EA0A0AFF
:1058F00011F0040F14BF4FF010084FF000084AEAEF
:10590000090911F0400F14BF4FF0200C4FF0000CAC
:1059100049EA080811F0100F14BF4FF4007E4FF051
:10592000000E48EA0C0C11F0200F14BF4FF48067F2
:1059300000274CEA0E0E11F4807F14BF4FF400666E
:1059400000264EEA070711F4007F14BF4FF400153C
:1059500000253E4311F4806F14BF4FF0806000209B
:10596000354311F01B0F40EA050014BF4FF00061F2
:10597000002101430020247B0346F6E0692800F063
:10598000A5810AD8672800F02C81682840F0168588
:1059900010200AF06FFD002490E16D2800F0A9812D
:1059A00000F2D2816C2840F009850A4C06200AF0EA
:1059B00061FDB4F868000AF060FDB4F86A000AF00E
:1059C0005CFDB4F96C300A2093FBF0F0E8E100BF15
:1059D000702E0020B411002008130020C0360020D3
:1059E000772800F091834BD8732800F0AD833CD822
:1059F000702800F00F82722840F0E084C54C162019
:105A00000AF038FDB4F894010AF037FDB4F840010B
:105A10000AF033FDB4F842010AF02FFDB4F8440156
:105A20000AF02BFDB4F8D8010AF027FD00200AF097
:105A3000EEFC00200AF0EBFC00200AF0E8FC94F8F1
:105A400083010AF0E4FC94F890010AF0E0FC0020E5
:105A50000AF0DDFCB04B0A20DB6CB3F9623093FB3B
:105A6000F0F080B20AF009FD9DE3742800F0138382
:105A7000752840F0A3842F200AF0FCFCA74CA1E27B
:105A8000A02800F07C830AD8782800F0B6807B2814
:105A900040F094843C200AF0EDFC00243CE2F12824
:105AA00000F0E680FE2800F05A83F02840F086845B
:105AB000994C04200AF0DEFCE36CB3F866000AF0AF
:105AC000DCFCE36CB3F8640056E303200AF0D2FC7C
:105AD00000200AF09CFC20460AF099FC0D20A9E366
